:100000000200B380438C248D2530CF02800280F91A
:10001000C2CFD290800CE52524FFF525E52434FFDE
:10002000F524E52545247002800280EAC29030B6AE
:10003000028002800675200075210130B70280021F
:100040008005E4F520F5212280BB8051E4F520F500
:10005000217590FE75CB0075CA0053C8FCD2ADD295
:10006000AFD2CAE521B40107E520B40002800280C6
:10007000097C087D3412000380077C0D7DAC1200E2
:100080000330B6028002800675200075210130B76A
:100090000280028005E4F520F52180C72280ADE4CE
:1000A000F5D075812678207A06F608DAFC12004A27
:0600B00002000002009FA7
:00000001FF
