:100000000200D080108D998D2980003099028002E5
:1000100080F9C2992280EE8060780179007A007BB5
:10002000227D077C00120091758780758920D28E11
:10003000758DFDE4F520F521E52124F9E5206480A6
:10004000347F500280028002802C74222521F9879F
:10005000E075985074222521F987051200030521C7
:10006000E52170020520E52124F9E5206480347F34
:100070005002800280D480FE22809E898288838BF9
:1000800000EC4D6036E4E0F608A31DBDFFF31C80D4
:10009000F0B800118B00EC4D6021E7F609081DBD9A
:1000A000FFF41C80F1898288838B00EC4D600CE4A6
:1000B00093F608A31DBDFFF31C80F022E4F5D07574
:1000C000812A78207A0AF608DAFC1200170200006A
:0300D0000200BC6F
:07010000616263646566673C
:00000001FF
