:1000000002015602013FE4F520F521E4F522F52333
:1000100075803875A00175A00075808075A0017588
:10002000A00085202285212302010AE52324F8E58A
:100030002234FF50028002800975800075A003758C
:10004000A002E523B40707E522B40002800280097C
:100050007580A575A00375A002E523B40607E52207
:10006000B40002800280097580A275A00375A00209
:10007000E523B40507E522B40002800280097580FB
:10008000A375A00375A002E523B40407E522B4001C
:1000900002800280097580A575A00375A002E52382
:1000A000B40307E522B40002800280097580AE75B2
:1000B000A00375A002E523B40207E522B400028084
:1000C0000280097580A975A00375A002E523B4011B
:1000D00007E522B40002800280097580AA75A0039A
:1000E00075A002E52324FFF523E52234FFF522E580
:1000F0002124F0FDE52034FFFCEDB52306ECB5220C
:100100000280028005E4F522F523E52345227002F2
:10011000800302002BE521FD2401F521E520FC34BC
:1001200000F520BD1605BC000280028005E4F52024
:10013000F52175800175A00175A000020022220240
:100140000006E4F5D0758124F520F521F522F5238C
:090150001200030200000201424A
:00000001FF
