:100000000200B08054780179007A007B207D567C14
:1000100000120071E4F576F577E57724D5E576648E
:1000200080347F500280028002802BA876A977E975
:10003000C333F9E833F87420292401F987A0057740
:10004000E57770020576E57724D5E5766480347F20
:100050005002800280D580BC2280AA898288838B4E
:1000600000EC4D6036E4E0F608A31DBDFFF31C80F4
:10007000F0B800118B00EC4D6021E7F609081DBDBA
:10008000FFF41C80F1898288838B00EC4D600CE4C6
:1000900093F608A31DBDFFF31C80F022E4F5D07594
:1000A000817878207A58F608DAFC12000302000002
:0300B00002009CAF
:10010000008000FF00F400E800DC00D000C400B86C
:1001100000AC00A000A000A000A000A000A000A0D3
:1001200000A000A400A800AC00B000B400B800BC5F
:1001300000C000800080008000800080008000807F
:1001400000800080008000800080008000800080AF
:0601500000800080008029
:00000001FF
