:10000000020058898288838B00EC4D6036E4E0F66C
:1000100008A31DBDFFF31C80F0B800118B00EC4D50
:100020006021E7F609081DBDFFF41C80F189828874
:10003000838B00EC4D600CE493F608A31DBDFFF329
:100040001C80F022E4F5D075812F78207A0FF60815
:0B005000DAFC12010F02000002004465
:100100003031323334353637383941424344450291
:10011000024B780179007A007B207D0F7C00120071
:100120001975803875A00175A00075808075A001D3
:1001300075A000C2902093028002800A79248780F3
:1001400075A00375A0022094028002800A7923879B
:100150008075A00375A0022095028002800A792292
:10016000878075A00375A0022096028002800A791C
:1001700021878075A00375A0022097028002800A63
:100180007920878075A00375A002D290C291209338
:10019000028002800A7929878075A00375A0022059
:1001A00094028002800A7928878075A00375A002D6
:1001B0002095028002800A7927878075A00375A0A8
:1001C000022096028002800A7926878075A0037536
:1001D000A0022097028002800A7925878075A003FB
:1001E00075A002D291C2922093028002800A792ED9
:1001F000878075A00375A0022094028002800A798E
:100200002D878075A00375A0022095028002800AC8
:10021000792C878075A00375A00220960280028049
:100220000A792B878075A00375A0022097028002AF
:10023000800A792A878075A00375A002D292758002
:0E0240000175A00175A0000201332202011217
:00000001FF
