:100000000200A08044780179007A007B227D0B7C7D
:1000100000120061792C879075200030B00C8000B0
:10002000E52024F540048000800480008014E52051
:10003000B40A037520007422A920780029F987A04A
:10004000052080D7792C87A02280BA898288838B6B
:1000500000EC4D6036E4E0F608A31DBDFFF31C8004
:10006000F0B800118B00EC4D6021E7F609081DBDCA
:10007000FFF41C80F1898288838B00EC4D600CE4D6
:1000800093F608A31DBDFFF31C80F022E4F5D075A4
:10009000812D78207A0DF608DAFC120003020000A8
:0300A00002008CCF
:0B010000C0F9A4B0999282F88090FF33
:00000001FF
