:100000000200B180338C2B8D2C8013758CD8758AAF
:10001000F0D28C308D02800280F9C28DC28CAC2B64
:10002000E52CFD152C7002152BED24FFEC648034BB
:100030007F4002800280D42280CB805F7589017569
:10004000220075230175240275250475260875277D
:1000500010752820752940752A808522907C007DA6
:1000600002120003E5232525F5907C007D05120092
:1000700003E5242526F5907C007D02120003E52788
:100080002529F5907C007D02120003E528252AF53C
:10009000907C007D0512000380FE22809FE4F5D055
:1000A00075812D78207A0DF608DAFC12003A0200EC
:0400B0000002009DAD
:00000001FF
